{
  "contractName": "Marketplace",
  "abi": [
    {
      "inputs": [],
      "stateMutability": "nonpayable",
      "type": "constructor"
    },
    {
      "anonymous": false,
      "inputs": [
        {
          "indexed": false,
          "internalType": "string",
          "name": "message",
          "type": "string"
        }
      ],
      "name": "MisionComplete",
      "type": "event"
    },
    {
      "inputs": [],
      "name": "customer",
      "outputs": [
        {
          "internalType": "address",
          "name": "",
          "type": "address"
        }
      ],
      "stateMutability": "view",
      "type": "function"
    },
    {
      "inputs": [],
      "name": "owner",
      "outputs": [
        {
          "internalType": "address",
          "name": "",
          "type": "address"
        }
      ],
      "stateMutability": "view",
      "type": "function"
    },
    {
      "inputs": [],
      "name": "status",
      "outputs": [
        {
          "internalType": "enum Marketplace.ShippingStatus",
          "name": "",
          "type": "uint8"
        }
      ],
      "stateMutability": "view",
      "type": "function"
    },
    {
      "inputs": [],
      "name": "Shipped",
      "outputs": [],
      "stateMutability": "nonpayable",
      "type": "function"
    },
    {
      "inputs": [],
      "name": "Delivered",
      "outputs": [],
      "stateMutability": "nonpayable",
      "type": "function"
    },
    {
      "inputs": [],
      "name": "getStatus",
      "outputs": [
        {
          "internalType": "enum Marketplace.ShippingStatus",
          "name": "",
          "type": "uint8"
        }
      ],
      "stateMutability": "view",
      "type": "function"
    },
    {
      "inputs": [],
      "name": "Status",
      "outputs": [
        {
          "internalType": "enum Marketplace.ShippingStatus",
          "name": "",
          "type": "uint8"
        }
      ],
      "stateMutability": "view",
      "type": "function"
    }
  ],
  "bytecode": "0x608060405234801561001057600080fd5b5060008060006101000a81548160ff0219169083600281111561005c577f4e487b7100000000000000000000000000000000000000000000000000000000600052602160045260246000fd5b021790555033600060016101000a81548173ffffffffffffffffffffffffffffffffffffffff021916908373ffffffffffffffffffffffffffffffffffffffff160217905550610801806100b16000396000f3fe608060405234801561001057600080fd5b506004361061007d5760003560e01c80634e69d5601161005b5780634e69d560146100dc578063779822f7146100fa5780637e59301e146101045780638da5cb5b1461010e5761007d565b8063200d2ed2146100825780632804b2c0146100a057806345f09ce9146100be575b600080fd5b61008a61012c565b6040516100979190610685565b60405180910390f35b6100a861013d565b6040516100b5919061066a565b60405180910390f35b6100c6610163565b6040516100d39190610685565b60405180910390f35b6100e4610208565b6040516100f19190610685565b60405180910390f35b6101026102ac565b005b61010c6103c3565b005b6101166104da565b604051610123919061066a565b60405180910390f35b60008054906101000a900460ff1681565b600160009054906101000a900473ffffffffffffffffffffffffffffffffffffffff1681565b6000600160009054906101000a900473ffffffffffffffffffffffffffffffffffffffff1673ffffffffffffffffffffffffffffffffffffffff163373ffffffffffffffffffffffffffffffffffffffff16146101f5576040517f08c379a00000000000000000000000000000000000000000000000000000000081526004016101ec906106c0565b60405180910390fd5b60008054906101000a900460ff16905090565b60008060019054906101000a900473ffffffffffffffffffffffffffffffffffffffff1673ffffffffffffffffffffffffffffffffffffffff163373ffffffffffffffffffffffffffffffffffffffff1614610299576040517f08c379a0000000000000000000000000000000000000000000000000000000008152600401610290906106a0565b60405180910390fd5b60008054906101000a900460ff16905090565b600060019054906101000a900473ffffffffffffffffffffffffffffffffffffffff1673ffffffffffffffffffffffffffffffffffffffff163373ffffffffffffffffffffffffffffffffffffffff161461033c576040517f08c379a0000000000000000000000000000000000000000000000000000000008152600401610333906106a0565b60405180910390fd5b60026000806101000a81548160ff02191690836002811115610387577f4e487b7100000000000000000000000000000000000000000000000000000000600052602160045260246000fd5b02179055507f3fc68d7b571ed72b534a9587117be2a5a117436d3a43910bdd3ade60047d6a006040516103b9906106e0565b60405180910390a1565b600060019054906101000a900473ffffffffffffffffffffffffffffffffffffffff1673ffffffffffffffffffffffffffffffffffffffff163373ffffffffffffffffffffffffffffffffffffffff1614610453576040517f08c379a000000000000000000000000000000000000000000000000000000000815260040161044a906106a0565b60405180910390fd5b60016000806101000a81548160ff0219169083600281111561049e577f4e487b7100000000000000000000000000000000000000000000000000000000600052602160045260246000fd5b02179055507f3fc68d7b571ed72b534a9587117be2a5a117436d3a43910bdd3ade60047d6a006040516104d090610700565b60405180910390a1565b600060019054906101000a900473ffffffffffffffffffffffffffffffffffffffff1681565b61050981610731565b82525050565b61051881610776565b82525050565b600061052b602683610720565b91507f4f6e6c7920746865206f776e65722063616e2063616c6c20746869732066756e60008301527f6374696f6e2e00000000000000000000000000000000000000000000000000006020830152604082019050919050565b6000610591603d83610720565b91507f4f6e6c792074686520637573746f6d65722077686f207061696420776974682060008301527f65746865722063616e2063616c6c20746869732066756e6374696f6e2e0000006020830152604082019050919050565b60006105f7601f83610720565b91507f546865207061636b61676520686173206265656e2064656c6976657265642e006000830152602082019050919050565b6000610637601d83610720565b91507f546865207061636b61676520686173206265656e20736869707065642e0000006000830152602082019050919050565b600060208201905061067f6000830184610500565b92915050565b600060208201905061069a600083018461050f565b92915050565b600060208201905081810360008301526106b98161051e565b9050919050565b600060208201905081810360008301526106d981610584565b9050919050565b600060208201905081810360008301526106f9816105ea565b9050919050565b600060208201905081810360008301526107198161062a565b9050919050565b600082825260208201905092915050565b600061073c82610756565b9050919050565b6000819050610751826107b7565b919050565b600073ffffffffffffffffffffffffffffffffffffffff82169050919050565b600061078182610743565b9050919050565b7f4e487b7100000000000000000000000000000000000000000000000000000000600052602160045260246000fd5b600381106107c8576107c7610788565b5b5056fea2646970667358221220358e67c3b5c528d30f7cb671bdb7d6603524aac0afcd9a8a68d6d17bcbd2ab6664736f6c63430008000033",
  "immutableReferences": {},
  "source": "// SPDX-License-Identifier: MIT\r\npragma solidity ^0.8.0;\r\n\r\ncontract Marketplace {\r\n    enum ShippingStatus { Pending, Shipped, Delivered }\r\n    ShippingStatus public status;\r\n    address public owner;\r\n    address public customer;\r\n    \r\n    event MisionComplete(string message);\r\n\r\n    modifier ownerOnly() \r\n    {\r\n        require(msg.sender == owner, \"Only the owner can call this function.\");\r\n        _;\r\n    }\r\n    \r\n    modifier customerOnly() \r\n    {\r\n        require(msg.sender == customer, \"Only the customer who paid with ether can call this function.\");\r\n        _;\r\n    }\r\n\r\n    constructor()\r\n    {\r\n        status = ShippingStatus.Pending;\r\n        owner = msg.sender;\r\n    }\r\n    \r\n    function Shipped() public ownerOnly \r\n    {\r\n        status = ShippingStatus.Shipped;\r\n        emit MisionComplete(\"The package has been shipped.\");\r\n    }\r\n    \r\n    function Delivered() public ownerOnly \r\n    {\r\n        status = ShippingStatus.Delivered;\r\n        emit MisionComplete(\"The package has been delivered.\");\r\n    }\r\n    \r\n    function getStatus() public view ownerOnly returns (ShippingStatus) \r\n    {\r\n        return status;\r\n    }\r\n    \r\n    function Status() public view customerOnly returns (ShippingStatus) \r\n    {\r\n        return status;\r\n    }\r\n}\r\n",
  "sourcePath": "C:\\Users\\33608\\Documents\\workspace\\projet_blk\\contracts\\contract.sol",
  "compiler": {
    "name": "solc",
    "version": "0.8.0+commit.c7dfd78e.Emscripten.clang"
  },
  "schemaVersion": "3.4.13",
  "updatedAt": "2023-03-09T10:35:14.855Z",
  "devdoc": {
    "kind": "dev",
    "methods": {},
    "version": 1
  },
  "userdoc": {
    "kind": "user",
    "methods": {},
    "version": 1
  }
}